{
  "_format": "hh-sol-artifact-1",
  "contractName": "TokenBuyer",
  "sourceName": "contracts/TokenBuyer.sol",
  "abi": [
    {
      "inputs": [],
      "name": "InvalidInitialization",
      "type": "error"
    },
    {
      "inputs": [],
      "name": "NotInitializing",
      "type": "error"
    },
    {
      "inputs": [
        {
          "internalType": "address",
          "name": "owner",
          "type": "address"
        }
      ],
      "name": "OwnableInvalidOwner",
      "type": "error"
    },
    {
      "inputs": [
        {
          "internalType": "address",
          "name": "account",
          "type": "address"
        }
      ],
      "name": "OwnableUnauthorizedAccount",
      "type": "error"
    },
    {
      "inputs": [],
      "name": "TokenZeroAddressError",
      "type": "error"
    },
    {
      "inputs": [],
      "name": "WrongTokenError",
      "type": "error"
    },
    {
      "anonymous": false,
      "inputs": [
        {
          "indexed": false,
          "internalType": "uint64",
          "name": "version",
          "type": "uint64"
        }
      ],
      "name": "Initialized",
      "type": "event"
    },
    {
      "anonymous": false,
      "inputs": [
        {
          "indexed": true,
          "internalType": "address",
          "name": "previousOwner",
          "type": "address"
        },
        {
          "indexed": true,
          "internalType": "address",
          "name": "newOwner",
          "type": "address"
        }
      ],
      "name": "OwnershipTransferred",
      "type": "event"
    },
    {
      "anonymous": false,
      "inputs": [
        {
          "indexed": true,
          "internalType": "address",
          "name": "who",
          "type": "address"
        },
        {
          "indexed": false,
          "internalType": "uint256",
          "name": "bnbIn",
          "type": "uint256"
        },
        {
          "indexed": false,
          "internalType": "uint256",
          "name": "ufiOut",
          "type": "uint256"
        }
      ],
      "name": "TokenPurchase",
      "type": "event"
    },
    {
      "inputs": [],
      "name": "PERCENT_DENOMINATOR",
      "outputs": [
        {
          "internalType": "uint16",
          "name": "",
          "type": "uint16"
        }
      ],
      "stateMutability": "view",
      "type": "function"
    },
    {
      "inputs": [
        {
          "internalType": "uint16",
          "name": "_slippage",
          "type": "uint16"
        }
      ],
      "name": "changeSlippage",
      "outputs": [],
      "stateMutability": "nonpayable",
      "type": "function"
    },
    {
      "inputs": [
        {
          "internalType": "address",
          "name": "factory",
          "type": "address"
        }
      ],
      "name": "initialize",
      "outputs": [],
      "stateMutability": "nonpayable",
      "type": "function"
    },
    {
      "inputs": [],
      "name": "intermediaryToken",
      "outputs": [
        {
          "internalType": "address",
          "name": "",
          "type": "address"
        }
      ],
      "stateMutability": "view",
      "type": "function"
    },
    {
      "inputs": [],
      "name": "owner",
      "outputs": [
        {
          "internalType": "address",
          "name": "",
          "type": "address"
        }
      ],
      "stateMutability": "view",
      "type": "function"
    },
    {
      "inputs": [],
      "name": "pairIntermediaryTokenToBuy",
      "outputs": [
        {
          "internalType": "address",
          "name": "",
          "type": "address"
        }
      ],
      "stateMutability": "view",
      "type": "function"
    },
    {
      "inputs": [],
      "name": "pairToSellToBuy",
      "outputs": [
        {
          "internalType": "address",
          "name": "",
          "type": "address"
        }
      ],
      "stateMutability": "view",
      "type": "function"
    },
    {
      "inputs": [],
      "name": "pairTokenToSellIntermediary",
      "outputs": [
        {
          "internalType": "address",
          "name": "",
          "type": "address"
        }
      ],
      "stateMutability": "view",
      "type": "function"
    },
    {
      "inputs": [],
      "name": "renounceOwnership",
      "outputs": [],
      "stateMutability": "nonpayable",
      "type": "function"
    },
    {
      "inputs": [
        {
          "internalType": "address",
          "name": "newIntermediaryToken",
          "type": "address"
        }
      ],
      "name": "setIntermediaryToken",
      "outputs": [],
      "stateMutability": "nonpayable",
      "type": "function"
    },
    {
      "inputs": [],
      "name": "setPair",
      "outputs": [],
      "stateMutability": "nonpayable",
      "type": "function"
    },
    {
      "inputs": [
        {
          "internalType": "address",
          "name": "newTokenToBuy",
          "type": "address"
        }
      ],
      "name": "setTokenToBuy",
      "outputs": [],
      "stateMutability": "nonpayable",
      "type": "function"
    },
    {
      "inputs": [
        {
          "internalType": "address",
          "name": "newTokenToSell",
          "type": "address"
        }
      ],
      "name": "setTokenToSell",
      "outputs": [],
      "stateMutability": "nonpayable",
      "type": "function"
    },
    {
      "inputs": [],
      "name": "slippage",
      "outputs": [
        {
          "internalType": "uint16",
          "name": "",
          "type": "uint16"
        }
      ],
      "stateMutability": "view",
      "type": "function"
    },
    {
      "inputs": [
        {
          "internalType": "uint256",
          "name": "_amountBUSD",
          "type": "uint256"
        }
      ],
      "name": "stableToUFI",
      "outputs": [
        {
          "internalType": "uint256",
          "name": "",
          "type": "uint256"
        },
        {
          "internalType": "uint256",
          "name": "",
          "type": "uint256"
        }
      ],
      "stateMutability": "view",
      "type": "function"
    },
    {
      "inputs": [
        {
          "internalType": "uint256",
          "name": "amountIn",
          "type": "uint256"
        },
        {
          "internalType": "address",
          "name": "to",
          "type": "address"
        },
        {
          "internalType": "uint256",
          "name": "deadline",
          "type": "uint256"
        }
      ],
      "name": "swapExactToSellToBuy",
      "outputs": [],
      "stateMutability": "nonpayable",
      "type": "function"
    },
    {
      "inputs": [
        {
          "internalType": "uint256",
          "name": "amountOut",
          "type": "uint256"
        },
        {
          "internalType": "address",
          "name": "to",
          "type": "address"
        },
        {
          "internalType": "uint256",
          "name": "deadline",
          "type": "uint256"
        }
      ],
      "name": "swapToSellExactToBuy",
      "outputs": [],
      "stateMutability": "nonpayable",
      "type": "function"
    },
    {
      "inputs": [],
      "name": "tokenToBuy",
      "outputs": [
        {
          "internalType": "address",
          "name": "",
          "type": "address"
        }
      ],
      "stateMutability": "view",
      "type": "function"
    },
    {
      "inputs": [],
      "name": "tokenToSell",
      "outputs": [
        {
          "internalType": "address",
          "name": "",
          "type": "address"
        }
      ],
      "stateMutability": "view",
      "type": "function"
    },
    {
      "inputs": [
        {
          "internalType": "address",
          "name": "newOwner",
          "type": "address"
        }
      ],
      "name": "transferOwnership",
      "outputs": [],
      "stateMutability": "nonpayable",
      "type": "function"
    },
    {
      "inputs": [],
      "name": "v2Factory",
      "outputs": [
        {
          "internalType": "address",
          "name": "",
          "type": "address"
        }
      ],
      "stateMutability": "view",
      "type": "function"
    }
  ],
  "bytecode": "0x6080604052348015600f57600080fd5b5061251d8061001f6000396000f3fe608060405234801561001057600080fd5b50600436106101375760003560e01c80638da5cb5b116100b8578063bc5a729b1161007c578063bc5a729b1461029f578063c307736b146102b2578063c4d66de8146102c5578063ce859187146102d8578063e491bb69146102eb578063f2fde38b146102fe57600080fd5b80638da5cb5b1461021857806391726154146102485780639e6c295914610270578063b4b57c3914610279578063b7c3f2351461028c57600080fd5b80634bdc18de116100ff5780634bdc18de146101cf57806355c19911146101d75780636cd07154146101ea578063715018a6146101fd5780637876c2591461020557600080fd5b8063185f2f7c1461013c57806319ca8d9d1461016c5780632ca0d9aa1461017f57806333b6367e146101945780633e032a3b146101a7575b600080fd5b60055461014f906001600160a01b031681565b6040516001600160a01b0390911681526020015b60405180910390f35b60015461014f906001600160a01b031681565b61019261018d3660046121c7565b610311565b005b6101926101a23660046121eb565b61033b565b6006546101bc90600160a01b900461ffff1681565b60405161ffff9091168152602001610163565b6101926103b4565b6101926101e536600461220f565b6104ad565b60035461014f906001600160a01b031681565b610192610923565b60045461014f906001600160a01b031681565b7f9016d09d72d40fdae2fd8ceac6b6234c7706214fd39c1cd1e609a0528c199300546001600160a01b031661014f565b61025b610256366004612247565b610937565b60408051928352602083019190915201610163565b6101bc61271081565b60005461014f906001600160a01b031681565b60025461014f906001600160a01b031681565b6101926102ad3660046121c7565b610bb7565b6101926102c03660046121c7565b610be1565b6101926102d33660046121c7565b610c0b565b6101926102e636600461220f565b610d41565b60065461014f906001600160a01b031681565b61019261030c3660046121c7565b6111a1565b6103196111df565b600280546001600160a01b0319166001600160a01b0392909216919091179055565b6103436111df565b61271061ffff821611156103925760405162461bcd60e51b81526020600482015260116024820152700a6d8d2e0e0c2ceca40e8dede40d0d2ced607b1b60448201526064015b60405180910390fd5b6006805461ffff909216600160a01b0261ffff60a01b19909216919091179055565b6103bc6111df565b6001546001600160a01b031615806103dd57506003546001600160a01b0316155b806103f157506002546001600160a01b0316155b1561040f576040516330148a3160e21b815260040160405180910390fd5b60035460025461042b916001600160a01b03908116911661123a565b600480546001600160a01b0319166001600160a01b0392831617905560025460015461045b92918216911661123a565b600580546001600160a01b0319166001600160a01b0392831617905560035460015461048b92918216911661123a565b600680546001600160a01b0319166001600160a01b0392909216919091179055565b6000806000600460009054906101000a90046001600160a01b03166001600160a01b0316630902f1ac6040518163ffffffff1660e01b8152600401606060405180830381865afa158015610505573d6000803e3d6000fd5b505050506040513d601f19601f82011682018060405250810190610529919061227c565b506002546004805460408051630dfe168160e01b815290519597509395506001600160a01b0392831694921692630dfe168192818301926020928290030181865afa15801561057c573d6000803e3d6000fd5b505050506040513d601f19601f820116820180604052508101906105a091906122cc565b6001600160a01b0316146105d0576105cb86826001600160701b0316846001600160701b0316611367565b6105ed565b6105ed86836001600160701b0316836001600160701b0316611367565b60065490935060009250612710915061061190600160a01b900461ffff16826122ff565b61061f9061ffff1684612319565b6106299190612330565b90506060600360009054906101000a90046001600160a01b03168160008151811061065657610656612352565b6001600160a01b03928316602091820292909201015260025482519116908290600190811061068757610687612352565b6001600160a01b0392831660209182029290920101526004546000916106b491899186911689868a611445565b9050600080600560009054906101000a90046001600160a01b03166001600160a01b0316630902f1ac6040518163ffffffff1660e01b8152600401606060405180830381865afa15801561070c573d6000803e3d6000fd5b505050506040513d601f19601f82011682018060405250810190610730919061227c565b5060025460055460408051630dfe168160e01b815290519496509294506001600160a01b0391821693911691630dfe16819160048083019260209291908290030181865afa158015610786573d6000803e3d6000fd5b505050506040513d601f19601f820116820180604052508101906107aa91906122cc565b6001600160a01b0316146107f4576107ef836001815181106107ce576107ce612352565b6020026020010151826001600160701b0316846001600160701b0316611367565b61082b565b61082b8360018151811061080a5761080a612352565b6020026020010151836001600160701b0316836001600160701b0316611367565b600654909650612710925061084c9150600160a01b900461ffff16826122ff565b61085a9061ffff1686612319565b6108649190612330565b92506060600260009054906101000a90046001600160a01b03168160008151811061089157610891612352565b6001600160a01b03928316602091820292909201015260018054835192169183919081106108c1576108c1612352565b60200260200101906001600160a01b031690816001600160a01b031681525050610918826001815181106108f7576108f7612352565b602090810291909101015160055487906001600160a01b03168a858b611445565b505050505050505050565b61092b6111df565b610935600061157b565b565b600080600080600460009054906101000a90046001600160a01b03166001600160a01b0316630902f1ac6040518163ffffffff1660e01b8152600401606060405180830381865afa158015610990573d6000803e3d6000fd5b505050506040513d601f19601f820116820180604052508101906109b4919061227c565b506001600160701b031691506001600160701b03169150600080600460009054906101000a90046001600160a01b03166001600160a01b0316630dfe16816040518163ffffffff1660e01b8152600401602060405180830381865afa158015610a21573d6000803e3d6000fd5b505050506040513d601f19601f82011682018060405250810190610a4591906122cc565b6003546001600160a01b03908116911614610a61578284610a64565b83835b915091506000610a75888484611367565b9050600560009054906101000a90046001600160a01b03166001600160a01b0316630902f1ac6040518163ffffffff1660e01b8152600401606060405180830381865afa158015610aca573d6000803e3d6000fd5b505050506040513d601f19601f82011682018060405250810190610aee919061227c565b5060055460408051630dfe168160e01b815290516001600160701b03948516995092909316965060009283926001600160a01b0390921691630dfe1681916004808201926020929091908290030181865afa158015610b51573d6000803e3d6000fd5b505050506040513d601f19601f82011682018060405250810190610b7591906122cc565b6001546001600160a01b03908116911614610b91578587610b94565b86865b915091506000610ba5848385611367565b939b939a509298505050505050505050565b610bbf6111df565b600380546001600160a01b0319166001600160a01b0392909216919091179055565b610be96111df565b600180546001600160a01b0319166001600160a01b0392909216919091179055565b7ff0c57e16840df040f15088dc2f81fe391c3923bec73e23a9662efc9c229c6a008054600160401b810460ff16159067ffffffffffffffff16600081158015610c515750825b905060008267ffffffffffffffff166001148015610c6e5750303b155b905081158015610c7c575080155b15610c9a5760405163f92ee8a960e01b815260040160405180910390fd5b845467ffffffffffffffff191660011785558315610cc457845460ff60401b1916600160401b1785555b600080546001600160a01b0319166001600160a01b038816179055610ce8336115ec565b610cf260646115fd565b8315610d3957845460ff60401b19168555604051600181527fc7f505b2f371ae2175ee4913f4499e1f2633a7b5936321eed1cdaeb6115181d2906020015b60405180910390a15b505050505050565b6000806000600460009054906101000a90046001600160a01b03166001600160a01b0316630902f1ac6040518163ffffffff1660e01b8152600401606060405180830381865afa158015610d99573d6000803e3d6000fd5b505050506040513d601f19601f82011682018060405250810190610dbd919061227c565b506002546004805460408051630dfe168160e01b815290519597509395506001600160a01b0392831694921692630dfe168192818301926020928290030181865afa158015610e10573d6000803e3d6000fd5b505050506040513d601f19601f82011682018060405250810190610e3491906122cc565b6001600160a01b031614610e6457610e5f86826001600160701b0316846001600160701b0316611712565b610e81565b610e8186836001600160701b0316836001600160701b0316611712565b600654909350600092506127109150610ea590600160a01b900461ffff16826122ff565b610eb39061ffff1684612319565b610ebd9190612330565b90506060600360009054906101000a90046001600160a01b031681600081518110610eea57610eea612352565b6001600160a01b039283166020918202929092010152600254825191169082906001908110610f1b57610f1b612352565b6001600160a01b0390921660209283029190910190910152600654600090610f8690889061271090610f5890600160a01b900461ffff16826122ff565b610f669061ffff168b612319565b610f709190612330565b60045485908a906001600160a01b03168a6117eb565b90506060600260009054906101000a90046001600160a01b031681600081518110610fb357610fb3612352565b6001600160a01b0392831660209182029290920101526001805483519216918391908110610fe357610fe3612352565b6001600160a01b03928316602091820292909201015260055460408051630240bc6b60e21b8152905160009384931691630902f1ac9160048083019260609291908290030181865afa15801561103d573d6000803e3d6000fd5b505050506040513d601f19601f82011682018060405250810190611061919061227c565b5060025460055460408051630dfe168160e01b815290519496509294506001600160a01b0391821693911691630dfe16819160048083019260209291908290030181865afa1580156110b7573d6000803e3d6000fd5b505050506040513d601f19601f820116820180604052508101906110db91906122cc565b6001600160a01b031614611104576110ff846001815181106107ce576107ce612352565b61111a565b61111a8460018151811061080a5761080a612352565b60065490975060009250612710915061113e90600160a01b900461ffff16826122ff565b61114c9061ffff1688612319565b6111569190612330565b90506111958360018151811061116e5761116e612352565b602002602001015182848b600560009054906101000a90046001600160a01b03168c6117eb565b50505050505050505050565b6111a96111df565b6001600160a01b0381166111d357604051631e4fbdf760e01b815260006004820152602401610389565b6111dc8161157b565b50565b336112117f9016d09d72d40fdae2fd8ceac6b6234c7706214fd39c1cd1e609a0528c199300546001600160a01b031690565b6001600160a01b0316146109355760405163118cdaa760e01b8152336004820152602401610389565b600080600061124985856118fe565b6000546040516bffffffffffffffffffffffff19606085811b8216602084015284901b1660348201529294509092506001600160a01b03169060480160408051808303601f1901815291905280516020909101206000546001600160a01b031673ca143ce32fe78f1f7019d7d551a6402fc5350c73146112fe576040518060400160405280602081526020017f96e8ac4277198ff8b6f785478aa9a39f403cb768dd02cbee326c3e7da348845f815250611334565b6040518060400160405280602081526020017efb7f630766e6a796048ea87d01acd3068e8ff67d078148a3fa3f4a84f69bd58152505b6040516020016113469392919061238c565b60408051601f19818403018152919052805160209091012095945050505050565b60008084116113cc5760405162461bcd60e51b815260206004820152602b60248201527f556e697377617056324c6962726172793a20494e53554646494349454e545f4960448201526a1394155517d05353d5539560aa1b6064820152608401610389565b6000831180156113dc5750600082115b6113f85760405162461bcd60e51b8152600401610389906123d5565b6000611406856103e56119f3565b9050600061141482856119f3565b9050600061142e83611428886103e86119f3565b90611a60565b905061143a8183612330565b979650505050505050565b606081428110156114935760405162461bcd60e51b8152602060048201526018602482015277155b9a5cddd85c158c949bdd5d195c8e881156141254915160421b6044820152606401610389565b61149e868986611ab5565b91508682600184516114b0919061241d565b815181106114c0576114c0612352565b602002602001015110156115255760405162461bcd60e51b815260206004820152602660248201527f546f6b656e42757965723a20494e53554646494349454e545f4f55545055545f604482015265105353d5539560d21b6064820152608401610389565b6115658460008151811061153b5761153b612352565b602002602001015133888560008151811061155857611558612352565b6020026020010151611bfd565b611570828787611d25565b509695505050505050565b7f9016d09d72d40fdae2fd8ceac6b6234c7706214fd39c1cd1e609a0528c19930080546001600160a01b031981166001600160a01b03848116918217845560405192169182907f8be0079c531659141344cd1fd0a4f28419497f9722a3daafe3b4186f6b6457e090600090a3505050565b6115f4611ee3565b6111dc81611f2c565b7ff0c57e16840df040f15088dc2f81fe391c3923bec73e23a9662efc9c229c6a008054600160401b810460ff16159067ffffffffffffffff166000811580156116435750825b905060008267ffffffffffffffff1660011480156116605750303b155b90508115801561166e575080155b1561168c5760405163f92ee8a960e01b815260040160405180910390fd5b845467ffffffffffffffff1916600117855583156116b657845460ff60401b1916600160401b1785555b6006805461ffff60a01b1916600160a01b61ffff8916021790558315610d3957845460ff60401b19168555604051600181527fc7f505b2f371ae2175ee4913f4499e1f2633a7b5936321eed1cdaeb6115181d290602001610d30565b60008084116117785760405162461bcd60e51b815260206004820152602c60248201527f556e697377617056324c6962726172793a20494e53554646494349454e545f4f60448201526b155514155517d05353d5539560a21b6064820152608401610389565b6000831180156117885750600082115b6117a45760405162461bcd60e51b8152600401610389906123d5565b60006117bc6103e86117b686886119f3565b906119f3565b905060006117d06103e56117b68689611f34565b90506117e160016114288385612330565b9695505050505050565b606081428110156118395760405162461bcd60e51b8152602060048201526018602482015277155b9a5cddd85c158c949bdd5d195c8e881156141254915160421b6044820152606401610389565b611844848988611f8a565b9150868260008151811061185a5761185a612352565b602002602001015111156118c05760405162461bcd60e51b815260206004820152602760248201527f556e69737761705632526f757465723a204558434553534956455f494e50555460448201526617d05353d5539560ca1b6064820152608401610389565b6118f3866000815181106118d6576118d6612352565b602002602001015133868560008151811061155857611558612352565b611570828587611d25565b600080826001600160a01b0316846001600160a01b03160361196e5760405162461bcd60e51b815260206004820152602360248201527f50616e63616b654c6962726172793a204944454e544943414c5f41444452455360448201526253455360e81b6064820152608401610389565b826001600160a01b0316846001600160a01b03161061198e578284611991565b83835b90925090506001600160a01b0382166119ec5760405162461bcd60e51b815260206004820152601c60248201527f50616e63616b654c6962726172793a205a45524f5f41444452455353000000006044820152606401610389565b9250929050565b6000811580611a1757508282611a098183612319565b9250611a159083612330565b145b611a5a5760405162461bcd60e51b815260206004820152601460248201527364732d6d6174682d6d756c2d6f766572666c6f7760601b6044820152606401610389565b92915050565b600082611a6d8382612430565b9150811015611a5a5760405162461bcd60e51b815260206004820152601460248201527364732d6d6174682d6164642d6f766572666c6f7760601b6044820152606401610389565b6060600282511015611b045760405162461bcd60e51b81526020600482015260186024820152770a8ded6cadc84eaf2cae47440929cac82989288bea082a8960431b6044820152606401610389565b815167ffffffffffffffff811115611b1e57611b1e612443565b604051908082528060200260200182016040528015611b47578160200160208202803683370190505b5090508281600081518110611b5e57611b5e612352565b602002602001018181525050600080611bac8685600081518110611b8457611b84612352565b602002602001015186600181518110611b9f57611b9f612352565b60200260200101516120a1565b91509150611bd583600081518110611bc657611bc6612352565b60200260200101518383611367565b83600181518110611be857611be8612352565b60200260200101818152505050509392505050565b604080516001600160a01b0385811660248301528481166044830152606480830185905283518084039091018152608490920183526020820180516001600160e01b03166323b872dd60e01b1790529151600092839290881691611c619190612459565b6000604051808303816000865af19150503d8060008114611c9e576040519150601f19603f3d011682016040523d82523d6000602084013e611ca3565b606091505b5091509150818015611ccd575080511580611ccd575080806020019051810190611ccd9190612475565b610d395760405162461bcd60e51b8152602060048201526024808201527f5472616e7366657248656c7065723a205452414e534645525f46524f4d5f46416044820152631253115160e21b6064820152608401610389565b600080836001600160a01b0316630dfe16816040518163ffffffff1660e01b8152600401602060405180830381865afa158015611d66573d6000803e3d6000fd5b505050506040513d601f19601f82011682018060405250810190611d8a91906122cc565b6003546001600160a01b0390811691161480611e2d5750836001600160a01b0316630dfe16816040518163ffffffff1660e01b8152600401602060405180830381865afa158015611ddf573d6000803e3d6000fd5b505050506040513d601f19601f82011682018060405250810190611e0391906122cc565b6002546001600160a01b039081169116148015611e2d57506005546001600160a01b038581169116145b611e535784600181518110611e4457611e44612352565b60200260200101516000611e71565b600085600181518110611e6857611e68612352565b60200260200101515b6040805160008152602081019182905263022c0d9f60e01b90915291935091506001600160a01b0385169063022c0d9f90611eb59085908590889060248101612497565b600060405180830381600087803b158015611ecf57600080fd5b505af1158015610918573d6000803e3d6000fd5b7ff0c57e16840df040f15088dc2f81fe391c3923bec73e23a9662efc9c229c6a0054600160401b900460ff1661093557604051631afcd79f60e31b815260040160405180910390fd5b6111a9611ee3565b600082611f41838261241d565b9150811115611a5a5760405162461bcd60e51b815260206004820152601560248201527464732d6d6174682d7375622d756e646572666c6f7760581b6044820152606401610389565b6060600282511015611fd95760405162461bcd60e51b81526020600482015260186024820152770a8ded6cadc84eaf2cae47440929cac82989288bea082a8960431b6044820152606401610389565b815167ffffffffffffffff811115611ff357611ff3612443565b60405190808252806020026020018201604052801561201c578160200160208202803683370190505b50905082816001835161202f919061241d565b8151811061203f5761203f612352565b6020026020010181815250506000806120658685600081518110611b8457611b84612352565b9150915061208e8360018151811061207f5761207f612352565b60200260200101518383611712565b83600081518110611be857611be8612352565b600080600080866001600160a01b0316630902f1ac6040518163ffffffff1660e01b8152600401606060405180830381865afa1580156120e5573d6000803e3d6000fd5b505050506040513d601f19601f82011682018060405250810190612109919061227c565b506001600160701b031691506001600160701b03169150866001600160a01b0316630dfe16816040518163ffffffff1660e01b8152600401602060405180830381865afa15801561215e573d6000803e3d6000fd5b505050506040513d601f19601f8201168201806040525081019061218291906122cc565b6001600160a01b0316866001600160a01b0316146121a15780826121a4565b81815b909890975095505050505050565b6001600160a01b03811681146111dc57600080fd5b6000602082840312156121d957600080fd5b81356121e4816121b2565b9392505050565b6000602082840312156121fd57600080fd5b813561ffff811681146121e457600080fd5b60008060006060848603121561222457600080fd5b833592506020840135612236816121b2565b929592945050506040919091013590565b60006020828403121561225957600080fd5b5035919050565b80516001600160701b038116811461227757600080fd5b919050565b60008060006060848603121561229157600080fd5b61229a84612260565b92506122a860208501612260565b9150604084015163ffffffff811681146122c157600080fd5b809150509250925092565b6000602082840312156122de57600080fd5b81516121e4816121b2565b634e487b7160e01b600052601160045260246000fd5b61ffff8281168282160390811115611a5a57611a5a6122e9565b8082028115828204841417611a5a57611a5a6122e9565b60008261234d57634e487b7160e01b600052601260045260246000fd5b500490565b634e487b7160e01b600052603260045260246000fd5b60005b8381101561238357818101518382015260200161236b565b50506000910152565b60ff60f81b81526bffffffffffffffffffffffff198460601b166001820152826015820152600082516123c6816035850160208701612368565b91909101603501949350505050565b60208082526028908201527f556e697377617056324c6962726172793a20494e53554646494349454e545f4c604082015267495155494449545960c01b606082015260800190565b81810381811115611a5a57611a5a6122e9565b80820180821115611a5a57611a5a6122e9565b634e487b7160e01b600052604160045260246000fd5b6000825161246b818460208701612368565b9190910192915050565b60006020828403121561248757600080fd5b815180151581146121e457600080fd5b84815283602082015260018060a01b038316604082015260806060820152600082518060808401526124d08160a0850160208701612368565b601f01601f19169190910160a0019594505050505056fea26469706673582212209ffd3dbc40c6e7f795f1aa07a4326c960b26ec26e8dad40951ab41c065990bcd64736f6c634300081c0033",
  "linkReferences": {},
  "deployedLinkReferences": {}
}