{
  "_format": "hh-sol-artifact-1",
  "contractName": "TokenBuyer",
  "sourceName": "contracts/TokenBuyer.sol",
  "abi": [
    {
      "inputs": [],
      "name": "InvalidInitialization",
      "type": "error"
    },
    {
      "inputs": [],
      "name": "NotInitializing",
      "type": "error"
    },
    {
      "inputs": [
        {
          "internalType": "address",
          "name": "owner",
          "type": "address"
        }
      ],
      "name": "OwnableInvalidOwner",
      "type": "error"
    },
    {
      "inputs": [
        {
          "internalType": "address",
          "name": "account",
          "type": "address"
        }
      ],
      "name": "OwnableUnauthorizedAccount",
      "type": "error"
    },
    {
      "inputs": [],
      "name": "TokenZeroAddressError",
      "type": "error"
    },
    {
      "inputs": [],
      "name": "WrongTokenError",
      "type": "error"
    },
    {
      "anonymous": false,
      "inputs": [
        {
          "indexed": false,
          "internalType": "uint64",
          "name": "version",
          "type": "uint64"
        }
      ],
      "name": "Initialized",
      "type": "event"
    },
    {
      "anonymous": false,
      "inputs": [
        {
          "indexed": true,
          "internalType": "address",
          "name": "previousOwner",
          "type": "address"
        },
        {
          "indexed": true,
          "internalType": "address",
          "name": "newOwner",
          "type": "address"
        }
      ],
      "name": "OwnershipTransferred",
      "type": "event"
    },
    {
      "anonymous": false,
      "inputs": [
        {
          "indexed": true,
          "internalType": "address",
          "name": "who",
          "type": "address"
        },
        {
          "indexed": false,
          "internalType": "uint256",
          "name": "bnbIn",
          "type": "uint256"
        },
        {
          "indexed": false,
          "internalType": "uint256",
          "name": "ufiOut",
          "type": "uint256"
        }
      ],
      "name": "TokenPurchase",
      "type": "event"
    },
    {
      "inputs": [],
      "name": "PERCENT_DENOMINATOR",
      "outputs": [
        {
          "internalType": "uint16",
          "name": "",
          "type": "uint16"
        }
      ],
      "stateMutability": "view",
      "type": "function"
    },
    {
      "inputs": [
        {
          "internalType": "uint16",
          "name": "_slippage",
          "type": "uint16"
        }
      ],
      "name": "changeSlippage",
      "outputs": [],
      "stateMutability": "nonpayable",
      "type": "function"
    },
    {
      "inputs": [
        {
          "internalType": "address",
          "name": "factory",
          "type": "address"
        }
      ],
      "name": "initialize",
      "outputs": [],
      "stateMutability": "nonpayable",
      "type": "function"
    },
    {
      "inputs": [],
      "name": "intermediaryToken",
      "outputs": [
        {
          "internalType": "address",
          "name": "",
          "type": "address"
        }
      ],
      "stateMutability": "view",
      "type": "function"
    },
    {
      "inputs": [],
      "name": "owner",
      "outputs": [
        {
          "internalType": "address",
          "name": "",
          "type": "address"
        }
      ],
      "stateMutability": "view",
      "type": "function"
    },
    {
      "inputs": [],
      "name": "pairIntermediaryTokenToBuy",
      "outputs": [
        {
          "internalType": "address",
          "name": "",
          "type": "address"
        }
      ],
      "stateMutability": "view",
      "type": "function"
    },
    {
      "inputs": [],
      "name": "pairToSellToBuy",
      "outputs": [
        {
          "internalType": "address",
          "name": "",
          "type": "address"
        }
      ],
      "stateMutability": "view",
      "type": "function"
    },
    {
      "inputs": [],
      "name": "pairTokenToSellIntermediary",
      "outputs": [
        {
          "internalType": "address",
          "name": "",
          "type": "address"
        }
      ],
      "stateMutability": "view",
      "type": "function"
    },
    {
      "inputs": [],
      "name": "renounceOwnership",
      "outputs": [],
      "stateMutability": "nonpayable",
      "type": "function"
    },
    {
      "inputs": [
        {
          "internalType": "address",
          "name": "newIntermediaryToken",
          "type": "address"
        }
      ],
      "name": "setIntermediaryToken",
      "outputs": [],
      "stateMutability": "nonpayable",
      "type": "function"
    },
    {
      "inputs": [],
      "name": "setPair",
      "outputs": [],
      "stateMutability": "nonpayable",
      "type": "function"
    },
    {
      "inputs": [
        {
          "internalType": "address",
          "name": "newTokenToBuy",
          "type": "address"
        }
      ],
      "name": "setTokenToBuy",
      "outputs": [],
      "stateMutability": "nonpayable",
      "type": "function"
    },
    {
      "inputs": [
        {
          "internalType": "address",
          "name": "newTokenToSell",
          "type": "address"
        }
      ],
      "name": "setTokenToSell",
      "outputs": [],
      "stateMutability": "nonpayable",
      "type": "function"
    },
    {
      "inputs": [],
      "name": "slippage",
      "outputs": [
        {
          "internalType": "uint16",
          "name": "",
          "type": "uint16"
        }
      ],
      "stateMutability": "view",
      "type": "function"
    },
    {
      "inputs": [
        {
          "internalType": "uint256",
          "name": "_amountBUSD",
          "type": "uint256"
        }
      ],
      "name": "stableToUFI",
      "outputs": [
        {
          "internalType": "uint256",
          "name": "",
          "type": "uint256"
        },
        {
          "internalType": "uint256",
          "name": "",
          "type": "uint256"
        }
      ],
      "stateMutability": "view",
      "type": "function"
    },
    {
      "inputs": [
        {
          "internalType": "uint256",
          "name": "amountIn",
          "type": "uint256"
        },
        {
          "internalType": "address",
          "name": "to",
          "type": "address"
        },
        {
          "internalType": "uint256",
          "name": "deadline",
          "type": "uint256"
        }
      ],
      "name": "swapExactToSellToBuy",
      "outputs": [],
      "stateMutability": "nonpayable",
      "type": "function"
    },
    {
      "inputs": [
        {
          "internalType": "uint256",
          "name": "amountOut",
          "type": "uint256"
        },
        {
          "internalType": "address",
          "name": "to",
          "type": "address"
        },
        {
          "internalType": "uint256",
          "name": "deadline",
          "type": "uint256"
        }
      ],
      "name": "swapToSellExactToBuy",
      "outputs": [],
      "stateMutability": "nonpayable",
      "type": "function"
    },
    {
      "inputs": [],
      "name": "tokenToBuy",
      "outputs": [
        {
          "internalType": "address",
          "name": "",
          "type": "address"
        }
      ],
      "stateMutability": "view",
      "type": "function"
    },
    {
      "inputs": [],
      "name": "tokenToSell",
      "outputs": [
        {
          "internalType": "address",
          "name": "",
          "type": "address"
        }
      ],
      "stateMutability": "view",
      "type": "function"
    },
    {
      "inputs": [
        {
          "internalType": "address",
          "name": "newOwner",
          "type": "address"
        }
      ],
      "name": "transferOwnership",
      "outputs": [],
      "stateMutability": "nonpayable",
      "type": "function"
    },
    {
      "inputs": [],
      "name": "v2Factory",
      "outputs": [
        {
          "internalType": "address",
          "name": "",
          "type": "address"
        }
      ],
      "stateMutability": "view",
      "type": "function"
    }
  ],
  "bytecode": "0x6080604052348015600f57600080fd5b506125818061001f6000396000f3fe608060405234801561001057600080fd5b50600436106101375760003560e01c80638da5cb5b116100b8578063bc5a729b1161007c578063bc5a729b1461029f578063c307736b146102b2578063c4d66de8146102c5578063ce859187146102d8578063e491bb69146102eb578063f2fde38b146102fe57600080fd5b80638da5cb5b1461021857806391726154146102485780639e6c295914610270578063b4b57c3914610279578063b7c3f2351461028c57600080fd5b80634bdc18de116100ff5780634bdc18de146101cf57806355c19911146101d75780636cd07154146101ea578063715018a6146101fd5780637876c2591461020557600080fd5b8063185f2f7c1461013c57806319ca8d9d1461016c5780632ca0d9aa1461017f57806333b6367e146101945780633e032a3b146101a7575b600080fd5b60055461014f906001600160a01b031681565b6040516001600160a01b0390911681526020015b60405180910390f35b60015461014f906001600160a01b031681565b61019261018d36600461222b565b610311565b005b6101926101a236600461224f565b61033b565b6006546101bc90600160a01b900461ffff1681565b60405161ffff9091168152602001610163565b6101926103b4565b6101926101e5366004612273565b6104ad565b60035461014f906001600160a01b031681565b610192610955565b60045461014f906001600160a01b031681565b7f9016d09d72d40fdae2fd8ceac6b6234c7706214fd39c1cd1e609a0528c199300546001600160a01b031661014f565b61025b6102563660046122ab565b610969565b60408051928352602083019190915201610163565b6101bc61271081565b60005461014f906001600160a01b031681565b60025461014f906001600160a01b031681565b6101926102ad36600461222b565b610be9565b6101926102c036600461222b565b610c13565b6101926102d336600461222b565b610c3d565b6101926102e6366004612273565b610d73565b60065461014f906001600160a01b031681565b61019261030c36600461222b565b611205565b610319611243565b600280546001600160a01b0319166001600160a01b0392909216919091179055565b610343611243565b61271061ffff821611156103925760405162461bcd60e51b81526020600482015260116024820152700a6d8d2e0e0c2ceca40e8dede40d0d2ced607b1b60448201526064015b60405180910390fd5b6006805461ffff909216600160a01b0261ffff60a01b19909216919091179055565b6103bc611243565b6001546001600160a01b031615806103dd57506003546001600160a01b0316155b806103f157506002546001600160a01b0316155b1561040f576040516330148a3160e21b815260040160405180910390fd5b60035460025461042b916001600160a01b03908116911661129e565b600480546001600160a01b0319166001600160a01b0392831617905560025460015461045b92918216911661129e565b600580546001600160a01b0319166001600160a01b0392831617905560035460015461048b92918216911661129e565b600680546001600160a01b0319166001600160a01b0392909216919091179055565b6000806000600460009054906101000a90046001600160a01b03166001600160a01b0316630902f1ac6040518163ffffffff1660e01b8152600401606060405180830381865afa158015610505573d6000803e3d6000fd5b505050506040513d601f19601f8201168201806040525081019061052991906122e0565b506002546004805460408051630dfe168160e01b815290519597509395506001600160a01b0392831694921692630dfe168192818301926020928290030181865afa15801561057c573d6000803e3d6000fd5b505050506040513d601f19601f820116820180604052508101906105a09190612330565b6001600160a01b0316146105d0576105cb86826001600160701b0316846001600160701b03166113cb565b6105ed565b6105ed86836001600160701b0316836001600160701b03166113cb565b60065490935060009250612710915061061190600160a01b900461ffff1682612363565b61061f9061ffff168461237d565b6106299190612394565b6040805160028082526060820183529293506000929091602083019080368337505060035482519293506001600160a01b03169183915060009061066f5761066f6123cc565b6001600160a01b0392831660209182029290920101526002548251911690829060019081106106a0576106a06123cc565b6001600160a01b0392831660209182029290920101526004546000916106cd91899186911689868a6114a9565b9050600080600560009054906101000a90046001600160a01b03166001600160a01b0316630902f1ac6040518163ffffffff1660e01b8152600401606060405180830381865afa158015610725573d6000803e3d6000fd5b505050506040513d601f19601f8201168201806040525081019061074991906122e0565b5060025460055460408051630dfe168160e01b815290519496509294506001600160a01b0391821693911691630dfe16819160048083019260209291908290030181865afa15801561079f573d6000803e3d6000fd5b505050506040513d601f19601f820116820180604052508101906107c39190612330565b6001600160a01b03161461080d57610808836001815181106107e7576107e76123cc565b6020026020010151826001600160701b0316846001600160701b03166113cb565b610844565b61084483600181518110610823576108236123cc565b6020026020010151836001600160701b0316836001600160701b03166113cb565b60065490965061271092506108659150600160a01b900461ffff1682612363565b6108739061ffff168661237d565b61087d9190612394565b6040805160028082526060820183529295506000929091602083019080368337505060025482519293506001600160a01b0316918391506000906108c3576108c36123cc565b6001600160a01b03928316602091820292909201015260018054835192169183919081106108f3576108f36123cc565b60200260200101906001600160a01b031690816001600160a01b03168152505061094a82600181518110610929576109296123cc565b602090810291909101015160055487906001600160a01b03168a858b6114a9565b505050505050505050565b61095d611243565b61096760006115df565b565b600080600080600460009054906101000a90046001600160a01b03166001600160a01b0316630902f1ac6040518163ffffffff1660e01b8152600401606060405180830381865afa1580156109c2573d6000803e3d6000fd5b505050506040513d601f19601f820116820180604052508101906109e691906122e0565b506001600160701b031691506001600160701b03169150600080600460009054906101000a90046001600160a01b03166001600160a01b0316630dfe16816040518163ffffffff1660e01b8152600401602060405180830381865afa158015610a53573d6000803e3d6000fd5b505050506040513d601f19601f82011682018060405250810190610a779190612330565b6003546001600160a01b03908116911614610a93578284610a96565b83835b915091506000610aa78884846113cb565b9050600560009054906101000a90046001600160a01b03166001600160a01b0316630902f1ac6040518163ffffffff1660e01b8152600401606060405180830381865afa158015610afc573d6000803e3d6000fd5b505050506040513d601f19601f82011682018060405250810190610b2091906122e0565b5060055460408051630dfe168160e01b815290516001600160701b03948516995092909316965060009283926001600160a01b0390921691630dfe1681916004808201926020929091908290030181865afa158015610b83573d6000803e3d6000fd5b505050506040513d601f19601f82011682018060405250810190610ba79190612330565b6001546001600160a01b03908116911614610bc3578587610bc6565b86865b915091506000610bd78483856113cb565b939b939a509298505050505050505050565b610bf1611243565b600380546001600160a01b0319166001600160a01b0392909216919091179055565b610c1b611243565b600180546001600160a01b0319166001600160a01b0392909216919091179055565b7ff0c57e16840df040f15088dc2f81fe391c3923bec73e23a9662efc9c229c6a008054600160401b810460ff16159067ffffffffffffffff16600081158015610c835750825b905060008267ffffffffffffffff166001148015610ca05750303b155b905081158015610cae575080155b15610ccc5760405163f92ee8a960e01b815260040160405180910390fd5b845467ffffffffffffffff191660011785558315610cf657845460ff60401b1916600160401b1785555b600080546001600160a01b0319166001600160a01b038816179055610d1a33611650565b610d246064611661565b8315610d6b57845460ff60401b19168555604051600181527fc7f505b2f371ae2175ee4913f4499e1f2633a7b5936321eed1cdaeb6115181d2906020015b60405180910390a15b505050505050565b6000806000600460009054906101000a90046001600160a01b03166001600160a01b0316630902f1ac6040518163ffffffff1660e01b8152600401606060405180830381865afa158015610dcb573d6000803e3d6000fd5b505050506040513d601f19601f82011682018060405250810190610def91906122e0565b506002546004805460408051630dfe168160e01b815290519597509395506001600160a01b0392831694921692630dfe168192818301926020928290030181865afa158015610e42573d6000803e3d6000fd5b505050506040513d601f19601f82011682018060405250810190610e669190612330565b6001600160a01b031614610e9657610e9186826001600160701b0316846001600160701b0316611776565b610eb3565b610eb386836001600160701b0316836001600160701b0316611776565b600654909350600092506127109150610ed790600160a01b900461ffff1682612363565b610ee59061ffff168461237d565b610eef9190612394565b6040805160028082526060820183529293506000929091602083019080368337505060035482519293506001600160a01b031691839150600090610f3557610f356123cc565b6001600160a01b039283166020918202929092010152600254825191169082906001908110610f6657610f666123cc565b6001600160a01b0390921660209283029190910190910152600654600090610fd190889061271090610fa390600160a01b900461ffff1682612363565b610fb19061ffff168b61237d565b610fbb9190612394565b60045485908a906001600160a01b03168a61184f565b6040805160028082526060820183529293506000929091602083019080368337505060025482519293506001600160a01b031691839150600090611017576110176123cc565b6001600160a01b0392831660209182029290920101526001805483519216918391908110611047576110476123cc565b6001600160a01b03928316602091820292909201015260055460408051630240bc6b60e21b8152905160009384931691630902f1ac9160048083019260609291908290030181865afa1580156110a1573d6000803e3d6000fd5b505050506040513d601f19601f820116820180604052508101906110c591906122e0565b5060025460055460408051630dfe168160e01b815290519496509294506001600160a01b0391821693911691630dfe16819160048083019260209291908290030181865afa15801561111b573d6000803e3d6000fd5b505050506040513d601f19601f8201168201806040525081019061113f9190612330565b6001600160a01b03161461116857611163846001815181106107e7576107e76123cc565b61117e565b61117e84600181518110610823576108236123cc565b6006549097506000925061271091506111a290600160a01b900461ffff1682612363565b6111b09061ffff168861237d565b6111ba9190612394565b90506111f9836001815181106111d2576111d26123cc565b602002602001015182848b600560009054906101000a90046001600160a01b03168c61184f565b50505050505050505050565b61120d611243565b6001600160a01b03811661123757604051631e4fbdf760e01b815260006004820152602401610389565b611240816115df565b50565b336112757f9016d09d72d40fdae2fd8ceac6b6234c7706214fd39c1cd1e609a0528c199300546001600160a01b031690565b6001600160a01b0316146109675760405163118cdaa760e01b8152336004820152602401610389565b60008060006112ad8585611962565b6000546040516bffffffffffffffffffffffff19606085811b8216602084015284901b1660348201529294509092506001600160a01b03169060480160408051808303601f1901815291905280516020909101206000546001600160a01b031673ca143ce32fe78f1f7019d7d551a6402fc5350c7314611362576040518060400160405280602081526020017f96e8ac4277198ff8b6f785478aa9a39f403cb768dd02cbee326c3e7da348845f815250611398565b6040518060400160405280602081526020017efb7f630766e6a796048ea87d01acd3068e8ff67d078148a3fa3f4a84f69bd58152505b6040516020016113aa93929190612406565b60408051601f19818403018152919052805160209091012095945050505050565b60008084116114305760405162461bcd60e51b815260206004820152602b60248201527f556e697377617056324c6962726172793a20494e53554646494349454e545f4960448201526a1394155517d05353d5539560aa1b6064820152608401610389565b6000831180156114405750600082115b61145c5760405162461bcd60e51b81526004016103899061244f565b600061146a856103e5611a57565b905060006114788285611a57565b905060006114928361148c886103e8611a57565b90611ac4565b905061149e8183612394565b979650505050505050565b606081428110156114f75760405162461bcd60e51b8152602060048201526018602482015277155b9a5cddd85c158c949bdd5d195c8e881156141254915160421b6044820152606401610389565b611502868986611b19565b91508682600184516115149190612497565b81518110611524576115246123cc565b602002602001015110156115895760405162461bcd60e51b815260206004820152602660248201527f546f6b656e42757965723a20494e53554646494349454e545f4f55545055545f604482015265105353d5539560d21b6064820152608401610389565b6115c98460008151811061159f5761159f6123cc565b60200260200101513388856000815181106115bc576115bc6123cc565b6020026020010151611c61565b6115d4828787611d89565b509695505050505050565b7f9016d09d72d40fdae2fd8ceac6b6234c7706214fd39c1cd1e609a0528c19930080546001600160a01b031981166001600160a01b03848116918217845560405192169182907f8be0079c531659141344cd1fd0a4f28419497f9722a3daafe3b4186f6b6457e090600090a3505050565b611658611f47565b61124081611f90565b7ff0c57e16840df040f15088dc2f81fe391c3923bec73e23a9662efc9c229c6a008054600160401b810460ff16159067ffffffffffffffff166000811580156116a75750825b905060008267ffffffffffffffff1660011480156116c45750303b155b9050811580156116d2575080155b156116f05760405163f92ee8a960e01b815260040160405180910390fd5b845467ffffffffffffffff19166001178555831561171a57845460ff60401b1916600160401b1785555b6006805461ffff60a01b1916600160a01b61ffff8916021790558315610d6b57845460ff60401b19168555604051600181527fc7f505b2f371ae2175ee4913f4499e1f2633a7b5936321eed1cdaeb6115181d290602001610d62565b60008084116117dc5760405162461bcd60e51b815260206004820152602c60248201527f556e697377617056324c6962726172793a20494e53554646494349454e545f4f60448201526b155514155517d05353d5539560a21b6064820152608401610389565b6000831180156117ec5750600082115b6118085760405162461bcd60e51b81526004016103899061244f565b60006118206103e861181a8688611a57565b90611a57565b905060006118346103e561181a8689611f98565b9050611845600161148c8385612394565b9695505050505050565b6060814281101561189d5760405162461bcd60e51b8152602060048201526018602482015277155b9a5cddd85c158c949bdd5d195c8e881156141254915160421b6044820152606401610389565b6118a8848988611fee565b915086826000815181106118be576118be6123cc565b602002602001015111156119245760405162461bcd60e51b815260206004820152602760248201527f556e69737761705632526f757465723a204558434553534956455f494e50555460448201526617d05353d5539560ca1b6064820152608401610389565b6119578660008151811061193a5761193a6123cc565b60200260200101513386856000815181106115bc576115bc6123cc565b6115d4828587611d89565b600080826001600160a01b0316846001600160a01b0316036119d25760405162461bcd60e51b815260206004820152602360248201527f50616e63616b654c6962726172793a204944454e544943414c5f41444452455360448201526253455360e81b6064820152608401610389565b826001600160a01b0316846001600160a01b0316106119f25782846119f5565b83835b90925090506001600160a01b038216611a505760405162461bcd60e51b815260206004820152601c60248201527f50616e63616b654c6962726172793a205a45524f5f41444452455353000000006044820152606401610389565b9250929050565b6000811580611a7b57508282611a6d818361237d565b9250611a799083612394565b145b611abe5760405162461bcd60e51b815260206004820152601460248201527364732d6d6174682d6d756c2d6f766572666c6f7760601b6044820152606401610389565b92915050565b600082611ad183826124aa565b9150811015611abe5760405162461bcd60e51b815260206004820152601460248201527364732d6d6174682d6164642d6f766572666c6f7760601b6044820152606401610389565b6060600282511015611b685760405162461bcd60e51b81526020600482015260186024820152770a8ded6cadc84eaf2cae47440929cac82989288bea082a8960431b6044820152606401610389565b815167ffffffffffffffff811115611b8257611b826123b6565b604051908082528060200260200182016040528015611bab578160200160208202803683370190505b5090508281600081518110611bc257611bc26123cc565b602002602001018181525050600080611c108685600081518110611be857611be86123cc565b602002602001015186600181518110611c0357611c036123cc565b6020026020010151612105565b91509150611c3983600081518110611c2a57611c2a6123cc565b602002602001015183836113cb565b83600181518110611c4c57611c4c6123cc565b60200260200101818152505050509392505050565b604080516001600160a01b0385811660248301528481166044830152606480830185905283518084039091018152608490920183526020820180516001600160e01b03166323b872dd60e01b1790529151600092839290881691611cc591906124bd565b6000604051808303816000865af19150503d8060008114611d02576040519150601f19603f3d011682016040523d82523d6000602084013e611d07565b606091505b5091509150818015611d31575080511580611d31575080806020019051810190611d3191906124d9565b610d6b5760405162461bcd60e51b8152602060048201526024808201527f5472616e7366657248656c7065723a205452414e534645525f46524f4d5f46416044820152631253115160e21b6064820152608401610389565b600080836001600160a01b0316630dfe16816040518163ffffffff1660e01b8152600401602060405180830381865afa158015611dca573d6000803e3d6000fd5b505050506040513d601f19601f82011682018060405250810190611dee9190612330565b6003546001600160a01b0390811691161480611e915750836001600160a01b0316630dfe16816040518163ffffffff1660e01b8152600401602060405180830381865afa158015611e43573d6000803e3d6000fd5b505050506040513d601f19601f82011682018060405250810190611e679190612330565b6002546001600160a01b039081169116148015611e9157506005546001600160a01b038581169116145b611eb75784600181518110611ea857611ea86123cc565b60200260200101516000611ed5565b600085600181518110611ecc57611ecc6123cc565b60200260200101515b6040805160008152602081019182905263022c0d9f60e01b90915291935091506001600160a01b0385169063022c0d9f90611f1990859085908890602481016124fb565b600060405180830381600087803b158015611f3357600080fd5b505af115801561094a573d6000803e3d6000fd5b7ff0c57e16840df040f15088dc2f81fe391c3923bec73e23a9662efc9c229c6a0054600160401b900460ff1661096757604051631afcd79f60e31b815260040160405180910390fd5b61120d611f47565b600082611fa58382612497565b9150811115611abe5760405162461bcd60e51b815260206004820152601560248201527464732d6d6174682d7375622d756e646572666c6f7760581b6044820152606401610389565b606060028251101561203d5760405162461bcd60e51b81526020600482015260186024820152770a8ded6cadc84eaf2cae47440929cac82989288bea082a8960431b6044820152606401610389565b815167ffffffffffffffff811115612057576120576123b6565b604051908082528060200260200182016040528015612080578160200160208202803683370190505b5090508281600183516120939190612497565b815181106120a3576120a36123cc565b6020026020010181815250506000806120c98685600081518110611be857611be86123cc565b915091506120f2836001815181106120e3576120e36123cc565b60200260200101518383611776565b83600081518110611c4c57611c4c6123cc565b600080600080866001600160a01b0316630902f1ac6040518163ffffffff1660e01b8152600401606060405180830381865afa158015612149573d6000803e3d6000fd5b505050506040513d601f19601f8201168201806040525081019061216d91906122e0565b506001600160701b031691506001600160701b03169150866001600160a01b0316630dfe16816040518163ffffffff1660e01b8152600401602060405180830381865afa1580156121c2573d6000803e3d6000fd5b505050506040513d601f19601f820116820180604052508101906121e69190612330565b6001600160a01b0316866001600160a01b031614612205578082612208565b81815b909890975095505050505050565b6001600160a01b038116811461124057600080fd5b60006020828403121561223d57600080fd5b813561224881612216565b9392505050565b60006020828403121561226157600080fd5b813561ffff8116811461224857600080fd5b60008060006060848603121561228857600080fd5b83359250602084013561229a81612216565b929592945050506040919091013590565b6000602082840312156122bd57600080fd5b5035919050565b80516001600160701b03811681146122db57600080fd5b919050565b6000806000606084860312156122f557600080fd5b6122fe846122c4565b925061230c602085016122c4565b9150604084015163ffffffff8116811461232557600080fd5b809150509250925092565b60006020828403121561234257600080fd5b815161224881612216565b634e487b7160e01b600052601160045260246000fd5b61ffff8281168282160390811115611abe57611abe61234d565b8082028115828204841417611abe57611abe61234d565b6000826123b157634e487b7160e01b600052601260045260246000fd5b500490565b634e487b7160e01b600052604160045260246000fd5b634e487b7160e01b600052603260045260246000fd5b60005b838110156123fd5781810151838201526020016123e5565b50506000910152565b60ff60f81b81526bffffffffffffffffffffffff198460601b166001820152826015820152600082516124408160358501602087016123e2565b91909101603501949350505050565b60208082526028908201527f556e697377617056324c6962726172793a20494e53554646494349454e545f4c604082015267495155494449545960c01b606082015260800190565b81810381811115611abe57611abe61234d565b80820180821115611abe57611abe61234d565b600082516124cf8184602087016123e2565b9190910192915050565b6000602082840312156124eb57600080fd5b8151801515811461224857600080fd5b84815283602082015260018060a01b038316604082015260806060820152600082518060808401526125348160a08501602087016123e2565b601f01601f19169190910160a0019594505050505056fea2646970667358221220dfbf421aefc86f701a688327bff730bd1e82ca7b87e56d6933b68e9784490dd464736f6c634300081c0033",
  "linkReferences": {},
  "deployedLinkReferences": {}
}